{
  "contractName": "PropertyRegistry",
  "abi": [
    {
      "inputs": [],
      "stateMutability": "nonpayable",
      "type": "constructor"
    },
    {
      "anonymous": false,
      "inputs": [
        {
          "indexed": true,
          "internalType": "uint256",
          "name": "propertyId",
          "type": "uint256"
        },
        {
          "indexed": true,
          "internalType": "address",
          "name": "owner",
          "type": "address"
        }
      ],
      "name": "PropertyRegistered",
      "type": "event"
    },
    {
      "anonymous": false,
      "inputs": [
        {
          "indexed": true,
          "internalType": "uint256",
          "name": "propertyId",
          "type": "uint256"
        },
        {
          "indexed": true,
          "internalType": "address",
          "name": "previousOwner",
          "type": "address"
        },
        {
          "indexed": true,
          "internalType": "address",
          "name": "newOwner",
          "type": "address"
        },
        {
          "indexed": false,
          "internalType": "uint256",
          "name": "price",
          "type": "uint256"
        }
      ],
      "name": "PropertySold",
      "type": "event"
    },
    {
      "anonymous": false,
      "inputs": [
        {
          "indexed": true,
          "internalType": "uint256",
          "name": "propertyId",
          "type": "uint256"
        }
      ],
      "name": "PropertyValidated",
      "type": "event"
    },
    {
      "inputs": [],
      "name": "admin",
      "outputs": [
        {
          "internalType": "address",
          "name": "",
          "type": "address"
        }
      ],
      "stateMutability": "view",
      "type": "function",
      "constant": true
    },
    {
      "inputs": [
        {
          "internalType": "uint256",
          "name": "",
          "type": "uint256"
        }
      ],
      "name": "properties",
      "outputs": [
        {
          "internalType": "uint256",
          "name": "id",
          "type": "uint256"
        },
        {
          "internalType": "string",
          "name": "title",
          "type": "string"
        },
        {
          "internalType": "string",
          "name": "description",
          "type": "string"
        },
        {
          "internalType": "string",
          "name": "location",
          "type": "string"
        },
        {
          "internalType": "uint256",
          "name": "price",
          "type": "uint256"
        },
        {
          "internalType": "address",
          "name": "owner",
          "type": "address"
        },
        {
          "internalType": "bool",
          "name": "isValidated",
          "type": "bool"
        },
        {
          "internalType": "bool",
          "name": "isSold",
          "type": "bool"
        }
      ],
      "stateMutability": "view",
      "type": "function",
      "constant": true
    },
    {
      "inputs": [
        {
          "internalType": "address",
          "name": "",
          "type": "address"
        },
        {
          "internalType": "uint256",
          "name": "",
          "type": "uint256"
        }
      ],
      "name": "userProperties",
      "outputs": [
        {
          "internalType": "uint256",
          "name": "",
          "type": "uint256"
        }
      ],
      "stateMutability": "view",
      "type": "function",
      "constant": true
    },
    {
      "inputs": [
        {
          "internalType": "string",
          "name": "_title",
          "type": "string"
        },
        {
          "internalType": "string",
          "name": "_description",
          "type": "string"
        },
        {
          "internalType": "string",
          "name": "_location",
          "type": "string"
        },
        {
          "internalType": "uint256",
          "name": "_price",
          "type": "uint256"
        }
      ],
      "name": "registerProperty",
      "outputs": [
        {
          "internalType": "uint256",
          "name": "",
          "type": "uint256"
        }
      ],
      "stateMutability": "nonpayable",
      "type": "function"
    },
    {
      "inputs": [
        {
          "internalType": "uint256",
          "name": "_propertyId",
          "type": "uint256"
        }
      ],
      "name": "validateProperty",
      "outputs": [],
      "stateMutability": "nonpayable",
      "type": "function"
    },
    {
      "inputs": [
        {
          "internalType": "uint256",
          "name": "_propertyId",
          "type": "uint256"
        }
      ],
      "name": "buyProperty",
      "outputs": [],
      "stateMutability": "payable",
      "type": "function",
      "payable": true
    },
    {
      "inputs": [
        {
          "internalType": "address",
          "name": "_user",
          "type": "address"
        }
      ],
      "name": "getUserProperties",
      "outputs": [
        {
          "internalType": "uint256[]",
          "name": "",
          "type": "uint256[]"
        }
      ],
      "stateMutability": "view",
      "type": "function",
      "constant": true
    },
    {
      "inputs": [
        {
          "internalType": "uint256",
          "name": "_propertyId",
          "type": "uint256"
        }
      ],
      "name": "getPropertyDetails",
      "outputs": [
        {
          "internalType": "uint256",
          "name": "id",
          "type": "uint256"
        },
        {
          "internalType": "string",
          "name": "title",
          "type": "string"
        },
        {
          "internalType": "string",
          "name": "description",
          "type": "string"
        },
        {
          "internalType": "string",
          "name": "location",
          "type": "string"
        },
        {
          "internalType": "uint256",
          "name": "price",
          "type": "uint256"
        },
        {
          "internalType": "address",
          "name": "owner",
          "type": "address"
        },
        {
          "internalType": "bool",
          "name": "isValidated",
          "type": "bool"
        },
        {
          "internalType": "bool",
          "name": "isSold",
          "type": "bool"
        }
      ],
      "stateMutability": "view",
      "type": "function",
      "constant": true
    },
    {
      "inputs": [],
      "name": "getAllProperties",
      "outputs": [
        {
          "internalType": "uint256[]",
          "name": "",
          "type": "uint256[]"
        }
      ],
      "stateMutability": "view",
      "type": "function",
      "constant": true
    },
    {
      "inputs": [
        {
          "internalType": "address",
          "name": "_newAdmin",
          "type": "address"
        }
      ],
      "name": "changeAdmin",
      "outputs": [],
      "stateMutability": "nonpayable",
      "type": "function"
    }
  ],
  "bytecode": "0x60806040526001805534801561001457600080fd5b50600080546001600160a01b0319163317905561125d806100366000396000f3fe6080604052600436106100915760003560e01c80636fa830a6116100595780636fa830a6146101655780638f28397014610178578063e2271c9f14610198578063f7b10808146101b8578063f851a440146101d857600080fd5b8063060a3e6114610096578063126dbe43146100cc578063128e3282146101005780633d51402c146101225780636d0b1e8714610137575b600080fd5b3480156100a257600080fd5b506100b66100b1366004610d76565b610210565b6040516100c39190610d98565b60405180910390f35b3480156100d857600080fd5b506100ec6100e7366004610ddc565b61027c565b6040516100c3989796959493929190610e3b565b34801561010c57600080fd5b5061012061011b366004610ddc565b6104d2565b005b34801561012e57600080fd5b506100b661063f565b34801561014357600080fd5b50610157610152366004610f53565b6106e2565b6040519081526020016100c3565b610120610173366004610ddc565b61083c565b34801561018457600080fd5b50610120610193366004610d76565b610aa8565b3480156101a457600080fd5b506101576101b3366004610fe3565b610b3c565b3480156101c457600080fd5b506100ec6101d3366004610ddc565b610b6d565b3480156101e457600080fd5b506000546101f8906001600160a01b031681565b6040516001600160a01b0390911681526020016100c3565b6001600160a01b03811660009081526003602090815260409182902080548351818402810184019094528084526060939283018282801561027057602002820191906000526020600020905b81548152602001906001019080831161025c575b50505050509050919050565b6000606080606060008060008060008911801561029a575060015489105b6102bf5760405162461bcd60e51b81526004016102b69061100d565b60405180910390fd5b6000898152600260208190526040909120805460048201546005830154600184018054949593949093860192600387019290916001600160a01b0382169160ff600160a01b8204811692600160a81b9092041690879061031e90611044565b80601f016020809104026020016040519081016040528092919081815260200182805461034a90611044565b80156103975780601f1061036c57610100808354040283529160200191610397565b820191906000526020600020905b81548152906001019060200180831161037a57829003601f168201915b505050505096508580546103aa90611044565b80601f01602080910402602001604051908101604052809291908181526020018280546103d690611044565b80156104235780601f106103f857610100808354040283529160200191610423565b820191906000526020600020905b81548152906001019060200180831161040657829003601f168201915b5050505050955084805461043690611044565b80601f016020809104026020016040519081016040528092919081815260200182805461046290611044565b80156104af5780601f10610484576101008083540402835291602001916104af565b820191906000526020600020905b81548152906001019060200180831161049257829003601f168201915b505050505094509850985098509850985098509850985050919395975091939597565b6000546001600160a01b031633146104fc5760405162461bcd60e51b81526004016102b690611078565b60008111801561050d575060015481105b6105295760405162461bcd60e51b81526004016102b69061100d565b600081815260026020526040902060050154600160a01b900460ff16156105925760405162461bcd60e51b815260206004820152601a60248201527f50726f706572747920616c72656164792076616c69646174656400000000000060448201526064016102b6565b600081815260026020526040902060050154600160a81b900460ff16156105f35760405162461bcd60e51b8152602060048201526015602482015274141c9bdc195c9d1e48185b1c9958591e481cdbdb19605a1b60448201526064016102b6565b600081815260026020526040808220600501805460ff60a01b1916600160a01b1790555182917f521d9fd8c608936261524b801a5fe233ffa36d4c1517361e18578ae81d25d06991a250565b606060006001805461065191906110d0565b67ffffffffffffffff81111561066957610669610eb0565b604051908082528060200260200182016040528015610692578160200160208202803683370190505b50905060015b6001548110156106dc5780826106af6001836110d0565b815181106106bf576106bf6110e9565b6020908102919091010152806106d4816110ff565b915050610698565b50919050565b600180546040805161010081018252828152602080820189815282840189905260608301889052608083018790523360a0840152600060c0840181905260e08401819052858152600290925292812082518155925190949192918201906107499082611167565b506040820151600282019061075e9082611167565b50606082015160038201906107739082611167565b506080820151600482015560a08201516005909101805460c084015160e0909401511515600160a81b0260ff60a81b19941515600160a01b026001600160a81b03199092166001600160a01b039094169390931717929092161790553360009081526003602090815260408220805460018181018355918452918320909101839055805491610801836110ff565b9091555050604051339082907ff16e2a0ca5373d3b3c5e53640bf2953ea25184f229ba20d421b5fc6a635e394590600090a395945050505050565b6000818152600260205260409020811580159061085a575060015482105b6108765760405162461bcd60e51b81526004016102b69061100d565b6005810154600160a01b900460ff166108d15760405162461bcd60e51b815260206004820152601a60248201527f50726f7065727479206e6f742076616c6964617465642079657400000000000060448201526064016102b6565b6005810154600160a81b900460ff16156109255760405162461bcd60e51b8152602060048201526015602482015274141c9bdc195c9d1e48185b1c9958591e481cdbdb19605a1b60448201526064016102b6565b60058101546001600160a01b031633036109815760405162461bcd60e51b815260206004820152601d60248201527f4f776e65722063616e6e6f7420627579206f776e2070726f706572747900000060448201526064016102b6565b80600401543410156109d55760405162461bcd60e51b815260206004820152601760248201527f496e73756666696369656e742066756e64732073656e7400000000000000000060448201526064016102b6565b600581018054600161ff0160a01b0319811633908117600160a81b1790925560009182526003602090815260408084208054600181018255908552918420909101859055516001600160a01b039091169182913480156108fc0292909190818181858888f19350505050158015610a50573d6000803e3d6000fd5b50336001600160a01b0316816001600160a01b0316847fddd64180d9701c7ede08673ac8106484ff983a472929330d4fbde4e35d65cb068560040154604051610a9b91815260200190565b60405180910390a4505050565b6000546001600160a01b03163314610ad25760405162461bcd60e51b81526004016102b690611078565b6001600160a01b038116610b1a5760405162461bcd60e51b815260206004820152600f60248201526e496e76616c6964206164647265737360881b60448201526064016102b6565b600080546001600160a01b0319166001600160a01b0392909216919091179055565b60036020528160005260406000208181548110610b5857600080fd5b90600052602060002001600091509150505481565b60026020526000908152604090208054600182018054919291610b8f90611044565b80601f0160208091040260200160405190810160405280929190818152602001828054610bbb90611044565b8015610c085780601f10610bdd57610100808354040283529160200191610c08565b820191906000526020600020905b815481529060010190602001808311610beb57829003601f168201915b505050505090806002018054610c1d90611044565b80601f0160208091040260200160405190810160405280929190818152602001828054610c4990611044565b8015610c965780601f10610c6b57610100808354040283529160200191610c96565b820191906000526020600020905b815481529060010190602001808311610c7957829003601f168201915b505050505090806003018054610cab90611044565b80601f0160208091040260200160405190810160405280929190818152602001828054610cd790611044565b8015610d245780601f10610cf957610100808354040283529160200191610d24565b820191906000526020600020905b815481529060010190602001808311610d0757829003601f168201915b50505060048401546005909401549293926001600160a01b038116925060ff600160a01b820481169250600160a81b9091041688565b80356001600160a01b0381168114610d7157600080fd5b919050565b600060208284031215610d8857600080fd5b610d9182610d5a565b9392505050565b6020808252825182820181905260009190848201906040850190845b81811015610dd057835183529284019291840191600101610db4565b50909695505050505050565b600060208284031215610dee57600080fd5b5035919050565b6000815180845260005b81811015610e1b57602081850181015186830182015201610dff565b506000602082860101526020601f19601f83011685010191505092915050565b60006101008a8352806020840152610e558184018b610df5565b90508281036040840152610e69818a610df5565b90508281036060840152610e7d8189610df5565b608084019790975250506001600160a01b039390931660a084015290151560c0830152151560e090910152949350505050565b634e487b7160e01b600052604160045260246000fd5b600082601f830112610ed757600080fd5b813567ffffffffffffffff80821115610ef257610ef2610eb0565b604051601f8301601f19908116603f01168101908282118183101715610f1a57610f1a610eb0565b81604052838152866020858801011115610f3357600080fd5b836020870160208301376000602085830101528094505050505092915050565b60008060008060808587031215610f6957600080fd5b843567ffffffffffffffff80821115610f8157600080fd5b610f8d88838901610ec6565b95506020870135915080821115610fa357600080fd5b610faf88838901610ec6565b94506040870135915080821115610fc557600080fd5b50610fd287828801610ec6565b949793965093946060013593505050565b60008060408385031215610ff657600080fd5b610fff83610d5a565b946020939093013593505050565b60208082526017908201527f50726f706572747920646f6573206e6f74206578697374000000000000000000604082015260600190565b600181811c9082168061105857607f821691505b6020821081036106dc57634e487b7160e01b600052602260045260246000fd5b60208082526022908201527f4f6e6c792061646d696e2063616e20706572666f726d2074686973206163746960408201526137b760f11b606082015260800190565b634e487b7160e01b600052601160045260246000fd5b818103818111156110e3576110e36110ba565b92915050565b634e487b7160e01b600052603260045260246000fd5b600060018201611111576111116110ba565b5060010190565b601f82111561116257600081815260208120601f850160051c8101602086101561113f5750805b601f850160051c820191505b8181101561115e5782815560010161114b565b5050505b505050565b815167ffffffffffffffff81111561118157611181610eb0565b6111958161118f8454611044565b84611118565b602080601f8311600181146111ca57600084156111b25750858301515b600019600386901b1c1916600185901b17855561115e565b600085815260208120601f198616915b828110156111f9578886015182559484019460019091019084016111da565b50858210156112175787850151600019600388901b60f8161c191681555b5050505050600190811b0190555056fea2646970667358221220b2645ca0cfb1e103b074731d0220f6364ae7650e39a135c934087e8a3a15014064736f6c63430008110033",
  "immutableReferences": {},
  "source": "// SPDX-License-Identifier: MIT\npragma solidity ^0.8.0;\n\ncontract PropertyRegistry {\n    address public admin;\n    \n    struct Property {\n        uint256 id;\n        string title;\n        string description;\n        string location;\n        uint256 price;\n        address owner;\n        bool isValidated;\n        bool isSold;\n    }\n    \n    // Property ID counter\n    uint256 private nextPropertyId = 1;\n    \n    // Mapping from property ID to Property\n    mapping(uint256 => Property) public properties;\n    \n    // Mapping from address to their properties (as arrays of property IDs)\n    mapping(address => uint256[]) public userProperties;\n    \n    // Events\n    event PropertyRegistered(uint256 indexed propertyId, address indexed owner);\n    event PropertyValidated(uint256 indexed propertyId);\n    event PropertySold(uint256 indexed propertyId, address indexed previousOwner, address indexed newOwner, uint256 price);\n    \n    modifier onlyAdmin() {\n        require(msg.sender == admin, \"Only admin can perform this action\");\n        _;\n    }\n    \n    modifier onlyPropertyOwner(uint256 _propertyId) {\n        require(properties[_propertyId].owner == msg.sender, \"Only property owner can perform this action\");\n        _;\n    }\n    \n    constructor() {\n        admin = msg.sender;\n    }\n    \n    function registerProperty(\n        string memory _title,\n        string memory _description,\n        string memory _location,\n        uint256 _price\n    ) external returns (uint256) {\n        uint256 propertyId = nextPropertyId;\n        \n        properties[propertyId] = Property({\n            id: propertyId,\n            title: _title,\n            description: _description,\n            location: _location,\n            price: _price,\n            owner: msg.sender,\n            isValidated: false,\n            isSold: false\n        });\n        \n        userProperties[msg.sender].push(propertyId);\n        nextPropertyId++;\n        \n        emit PropertyRegistered(propertyId, msg.sender);\n        \n        return propertyId;\n    }\n    \n    function validateProperty(uint256 _propertyId) external onlyAdmin {\n        require(_propertyId > 0 && _propertyId < nextPropertyId, \"Property does not exist\");\n        require(!properties[_propertyId].isValidated, \"Property already validated\");\n        require(!properties[_propertyId].isSold, \"Property already sold\");\n        \n        properties[_propertyId].isValidated = true;\n        \n        emit PropertyValidated(_propertyId);\n    }\n    \n    function buyProperty(uint256 _propertyId) external payable {\n        Property storage property = properties[_propertyId];\n        \n        require(_propertyId > 0 && _propertyId < nextPropertyId, \"Property does not exist\");\n        require(property.isValidated, \"Property not validated yet\");\n        require(!property.isSold, \"Property already sold\");\n        require(msg.sender != property.owner, \"Owner cannot buy own property\");\n        require(msg.value >= property.price, \"Insufficient funds sent\");\n        \n        address previousOwner = property.owner;\n        \n        // Update property status\n        property.isSold = true;\n        property.owner = msg.sender;\n        \n        // Update owner's property list\n        userProperties[msg.sender].push(_propertyId);\n        \n        // Transfer funds to previous owner\n        payable(previousOwner).transfer(msg.value);\n        \n        emit PropertySold(_propertyId, previousOwner, msg.sender, property.price);\n    }\n    \n    function getUserProperties(address _user) external view returns (uint256[] memory) {\n        return userProperties[_user];\n    }\n    \n    function getPropertyDetails(uint256 _propertyId) external view returns (\n        uint256 id,\n        string memory title,\n        string memory description,\n        string memory location,\n        uint256 price,\n        address owner,\n        bool isValidated,\n        bool isSold\n    ) {\n        require(_propertyId > 0 && _propertyId < nextPropertyId, \"Property does not exist\");\n        \n        Property storage property = properties[_propertyId];\n        \n        return (\n            property.id,\n            property.title,\n            property.description,\n            property.location,\n            property.price,\n            property.owner,\n            property.isValidated,\n            property.isSold\n        );\n    }\n    \n    function getAllProperties() external view returns (uint256[] memory) {\n        uint256[] memory allProperties = new uint256[](nextPropertyId - 1);\n        \n        for (uint256 i = 1; i < nextPropertyId; i++) {\n            allProperties[i - 1] = i;\n        }\n        \n        return allProperties;\n    }\n    \n    function changeAdmin(address _newAdmin) external onlyAdmin {\n        require(_newAdmin != address(0), \"Invalid address\");\n        admin = _newAdmin;\n    }\n}\n",
  "sourcePath": "/Users/abdallah/Desktop/property-registry-dApp/contracts/PropertyRegistry.sol",
  "compiler": {
    "name": "solc",
    "version": "0.8.17+commit.8df45f5f.Emscripten.clang"
  },
  "schemaVersion": "3.4.16",
  "updatedAt": "2025-05-05T01:48:46.415Z",
  "networkType": "ethereum",
  "devdoc": {
    "kind": "dev",
    "methods": {},
    "version": 1
  },
  "userdoc": {
    "kind": "user",
    "methods": {},
    "version": 1
  }
}