{
  "contractName": "PropertyRegistryV3",
  "abi": [
    {
      "inputs": [],
      "stateMutability": "nonpayable",
      "type": "constructor"
    },
    {
      "anonymous": false,
      "inputs": [
        {
          "indexed": true,
          "internalType": "address",
          "name": "admin",
          "type": "address"
        }
      ],
      "name": "AdminAdded",
      "type": "event"
    },
    {
      "anonymous": false,
      "inputs": [
        {
          "indexed": true,
          "internalType": "address",
          "name": "admin",
          "type": "address"
        }
      ],
      "name": "AdminRemoved",
      "type": "event"
    },
    {
      "anonymous": false,
      "inputs": [
        {
          "indexed": true,
          "internalType": "address",
          "name": "user",
          "type": "address"
        },
        {
          "indexed": false,
          "internalType": "uint256",
          "name": "amount",
          "type": "uint256"
        }
      ],
      "name": "BalanceWithdrawn",
      "type": "event"
    },
    {
      "anonymous": false,
      "inputs": [
        {
          "indexed": true,
          "internalType": "uint256",
          "name": "propertyId",
          "type": "uint256"
        },
        {
          "indexed": true,
          "internalType": "address",
          "name": "admin",
          "type": "address"
        }
      ],
      "name": "PropertyApproved",
      "type": "event"
    },
    {
      "anonymous": false,
      "inputs": [
        {
          "indexed": true,
          "internalType": "uint256",
          "name": "propertyId",
          "type": "uint256"
        },
        {
          "indexed": true,
          "internalType": "address",
          "name": "owner",
          "type": "address"
        }
      ],
      "name": "PropertyRegistered",
      "type": "event"
    },
    {
      "anonymous": false,
      "inputs": [
        {
          "indexed": true,
          "internalType": "uint256",
          "name": "propertyId",
          "type": "uint256"
        },
        {
          "indexed": true,
          "internalType": "address",
          "name": "admin",
          "type": "address"
        }
      ],
      "name": "PropertyRejected",
      "type": "event"
    },
    {
      "anonymous": false,
      "inputs": [
        {
          "indexed": true,
          "internalType": "uint256",
          "name": "propertyId",
          "type": "uint256"
        },
        {
          "indexed": true,
          "internalType": "address",
          "name": "previousOwner",
          "type": "address"
        },
        {
          "indexed": true,
          "internalType": "address",
          "name": "newOwner",
          "type": "address"
        },
        {
          "indexed": false,
          "internalType": "uint256",
          "name": "price",
          "type": "uint256"
        },
        {
          "indexed": false,
          "internalType": "uint256",
          "name": "fee",
          "type": "uint256"
        }
      ],
      "name": "PropertySold",
      "type": "event"
    },
    {
      "anonymous": false,
      "inputs": [
        {
          "indexed": true,
          "internalType": "address",
          "name": "user",
          "type": "address"
        }
      ],
      "name": "UserRegistered",
      "type": "event"
    },
    {
      "inputs": [
        {
          "internalType": "address",
          "name": "",
          "type": "address"
        }
      ],
      "name": "adminBalances",
      "outputs": [
        {
          "internalType": "uint256",
          "name": "",
          "type": "uint256"
        }
      ],
      "stateMutability": "view",
      "type": "function",
      "constant": true
    },
    {
      "inputs": [],
      "name": "adminFeePercent",
      "outputs": [
        {
          "internalType": "uint256",
          "name": "",
          "type": "uint256"
        }
      ],
      "stateMutability": "view",
      "type": "function",
      "constant": true
    },
    {
      "inputs": [
        {
          "internalType": "address",
          "name": "",
          "type": "address"
        }
      ],
      "name": "admins",
      "outputs": [
        {
          "internalType": "bool",
          "name": "",
          "type": "bool"
        }
      ],
      "stateMutability": "view",
      "type": "function",
      "constant": true
    },
    {
      "inputs": [
        {
          "internalType": "uint256",
          "name": "",
          "type": "uint256"
        }
      ],
      "name": "properties",
      "outputs": [
        {
          "internalType": "uint256",
          "name": "id",
          "type": "uint256"
        },
        {
          "internalType": "string",
          "name": "title",
          "type": "string"
        },
        {
          "internalType": "string",
          "name": "description",
          "type": "string"
        },
        {
          "internalType": "string",
          "name": "location",
          "type": "string"
        },
        {
          "internalType": "uint256",
          "name": "price",
          "type": "uint256"
        },
        {
          "internalType": "address",
          "name": "owner",
          "type": "address"
        },
        {
          "internalType": "enum PropertyRegistryV3.PropertyStatus",
          "name": "status",
          "type": "uint8"
        },
        {
          "internalType": "address",
          "name": "approvedBy",
          "type": "address"
        }
      ],
      "stateMutability": "view",
      "type": "function",
      "constant": true
    },
    {
      "inputs": [
        {
          "internalType": "address",
          "name": "",
          "type": "address"
        }
      ],
      "name": "registeredUsers",
      "outputs": [
        {
          "internalType": "bool",
          "name": "",
          "type": "bool"
        }
      ],
      "stateMutability": "view",
      "type": "function",
      "constant": true
    },
    {
      "inputs": [],
      "name": "superAdmin",
      "outputs": [
        {
          "internalType": "address",
          "name": "",
          "type": "address"
        }
      ],
      "stateMutability": "view",
      "type": "function",
      "constant": true
    },
    {
      "inputs": [
        {
          "internalType": "address",
          "name": "",
          "type": "address"
        },
        {
          "internalType": "uint256",
          "name": "",
          "type": "uint256"
        }
      ],
      "name": "userProperties",
      "outputs": [
        {
          "internalType": "uint256",
          "name": "",
          "type": "uint256"
        }
      ],
      "stateMutability": "view",
      "type": "function",
      "constant": true
    },
    {
      "inputs": [
        {
          "internalType": "address",
          "name": "_admin",
          "type": "address"
        }
      ],
      "name": "addAdmin",
      "outputs": [],
      "stateMutability": "nonpayable",
      "type": "function"
    },
    {
      "inputs": [
        {
          "internalType": "address",
          "name": "_admin",
          "type": "address"
        }
      ],
      "name": "removeAdmin",
      "outputs": [],
      "stateMutability": "nonpayable",
      "type": "function"
    },
    {
      "inputs": [
        {
          "internalType": "address",
          "name": "_user",
          "type": "address"
        }
      ],
      "name": "registerUser",
      "outputs": [],
      "stateMutability": "nonpayable",
      "type": "function"
    },
    {
      "inputs": [
        {
          "internalType": "address",
          "name": "_newSuperAdmin",
          "type": "address"
        }
      ],
      "name": "changeSuperAdmin",
      "outputs": [],
      "stateMutability": "nonpayable",
      "type": "function"
    },
    {
      "inputs": [
        {
          "internalType": "uint256",
          "name": "_propertyId",
          "type": "uint256"
        }
      ],
      "name": "approveProperty",
      "outputs": [],
      "stateMutability": "nonpayable",
      "type": "function"
    },
    {
      "inputs": [
        {
          "internalType": "uint256",
          "name": "_propertyId",
          "type": "uint256"
        }
      ],
      "name": "rejectProperty",
      "outputs": [],
      "stateMutability": "nonpayable",
      "type": "function"
    },
    {
      "inputs": [],
      "name": "withdrawAdminBalance",
      "outputs": [],
      "stateMutability": "nonpayable",
      "type": "function"
    },
    {
      "inputs": [
        {
          "internalType": "string",
          "name": "_title",
          "type": "string"
        },
        {
          "internalType": "string",
          "name": "_description",
          "type": "string"
        },
        {
          "internalType": "string",
          "name": "_location",
          "type": "string"
        },
        {
          "internalType": "uint256",
          "name": "_price",
          "type": "uint256"
        }
      ],
      "name": "registerProperty",
      "outputs": [
        {
          "internalType": "uint256",
          "name": "",
          "type": "uint256"
        }
      ],
      "stateMutability": "nonpayable",
      "type": "function"
    },
    {
      "inputs": [
        {
          "internalType": "uint256",
          "name": "_propertyId",
          "type": "uint256"
        }
      ],
      "name": "buyProperty",
      "outputs": [],
      "stateMutability": "payable",
      "type": "function",
      "payable": true
    },
    {
      "inputs": [
        {
          "internalType": "address",
          "name": "_user",
          "type": "address"
        }
      ],
      "name": "getUserProperties",
      "outputs": [
        {
          "internalType": "uint256[]",
          "name": "",
          "type": "uint256[]"
        }
      ],
      "stateMutability": "view",
      "type": "function",
      "constant": true
    },
    {
      "inputs": [
        {
          "internalType": "uint256",
          "name": "_propertyId",
          "type": "uint256"
        }
      ],
      "name": "getPropertyDetails",
      "outputs": [
        {
          "internalType": "uint256",
          "name": "id",
          "type": "uint256"
        },
        {
          "internalType": "string",
          "name": "title",
          "type": "string"
        },
        {
          "internalType": "string",
          "name": "description",
          "type": "string"
        },
        {
          "internalType": "string",
          "name": "location",
          "type": "string"
        },
        {
          "internalType": "uint256",
          "name": "price",
          "type": "uint256"
        },
        {
          "internalType": "address",
          "name": "owner",
          "type": "address"
        },
        {
          "internalType": "enum PropertyRegistryV3.PropertyStatus",
          "name": "status",
          "type": "uint8"
        },
        {
          "internalType": "address",
          "name": "approvedBy",
          "type": "address"
        }
      ],
      "stateMutability": "view",
      "type": "function",
      "constant": true
    },
    {
      "inputs": [],
      "name": "getAllProperties",
      "outputs": [
        {
          "internalType": "uint256[]",
          "name": "",
          "type": "uint256[]"
        }
      ],
      "stateMutability": "view",
      "type": "function",
      "constant": true
    },
    {
      "inputs": [
        {
          "internalType": "address",
          "name": "_admin",
          "type": "address"
        }
      ],
      "name": "getAdminBalance",
      "outputs": [
        {
          "internalType": "uint256",
          "name": "",
          "type": "uint256"
        }
      ],
      "stateMutability": "view",
      "type": "function",
      "constant": true
    },
    {
      "inputs": [
        {
          "internalType": "address",
          "name": "_user",
          "type": "address"
        }
      ],
      "name": "isUserRegistered",
      "outputs": [
        {
          "internalType": "bool",
          "name": "",
          "type": "bool"
        }
      ],
      "stateMutability": "view",
      "type": "function",
      "constant": true
    },
    {
      "inputs": [
        {
          "internalType": "address",
          "name": "_user",
          "type": "address"
        }
      ],
      "name": "isAdmin",
      "outputs": [
        {
          "internalType": "bool",
          "name": "",
          "type": "bool"
        }
      ],
      "stateMutability": "view",
      "type": "function",
      "constant": true
    },
    {
      "inputs": [
        {
          "internalType": "address",
          "name": "_user",
          "type": "address"
        }
      ],
      "name": "isSuperAdmin",
      "outputs": [
        {
          "internalType": "bool",
          "name": "",
          "type": "bool"
        }
      ],
      "stateMutability": "view",
      "type": "function",
      "constant": true
    }
  ],
  "bytecode": "0x6080604052600a600355600160055534801561001a57600080fd5b50600080546001600160a01b0319163390811782558152600260205260409020805460ff19166001179055611d31806100546000396000f3fe60806040526004361061013f5760003560e01c80633d51402c116100b65780638c7fb7931161006f5780638c7fb7931461040b578063cbf04b8614610421578063df7f453b1461044e578063e2271c9f1461047d578063e9b66f8c1461049d578063f7b10808146104bd57600080fd5b80633d51402c1461035357806341858c4b14610368578063429b62e5146103885780636d0b1e87146103b85780636fa830a6146103d857806370480275146103eb57600080fd5b8063163f752211610108578063163f7522146102495780631785f53c146102825780632199d5cd146102a257806324d7806c146102c257806327983fcf146102fb57806329575f6a1461031b57600080fd5b80621640f914610144578063060a3e611461015b5780630e50cee514610191578063126dbe43146101d1578063128c9f0114610205575b600080fd5b34801561015057600080fd5b506101596104dd565b005b34801561016757600080fd5b5061017b610176366004611707565b6105fb565b6040516101889190611729565b60405180910390f35b34801561019d57600080fd5b506101c16101ac366004611707565b60026020526000908152604090205460ff1681565b6040519015158152602001610188565b3480156101dd57600080fd5b506101f16101ec36600461176d565b610667565b6040516101889897969594939291906117e2565b34801561021157600080fd5b5061023b610220366004611707565b6001600160a01b031660009081526004602052604090205490565b604051908152602001610188565b34801561025557600080fd5b506101c1610264366004611707565b6001600160a01b031660009081526002602052604090205460ff1690565b34801561028e57600080fd5b5061015961029d366004611707565b6108b2565b3480156102ae57600080fd5b506101596102bd366004611707565b61098d565b3480156102ce57600080fd5b506101c16102dd366004611707565b6001600160a01b031660009081526001602052604090205460ff1690565b34801561030757600080fd5b5061015961031636600461176d565b610a92565b34801561032757600080fd5b5060005461033b906001600160a01b031681565b6040516001600160a01b039091168152602001610188565b34801561035f57600080fd5b5061017b610be1565b34801561037457600080fd5b50610159610383366004611707565b610c85565b34801561039457600080fd5b506101c16103a3366004611707565b60016020526000908152604090205460ff1681565b3480156103c457600080fd5b5061023b6103d336600461191d565b610d0d565b6101596103e636600461176d565b610eed565b3480156103f757600080fd5b50610159610406366004611707565b611264565b34801561041757600080fd5b5061023b60035481565b34801561042d57600080fd5b5061023b61043c366004611707565b60046020526000908152604090205481565b34801561045a57600080fd5b506101c1610469366004611707565b6000546001600160a01b0391821691161490565b34801561048957600080fd5b5061023b6104983660046119ad565b61137f565b3480156104a957600080fd5b506101596104b836600461176d565b6113b0565b3480156104c957600080fd5b506101f16104d836600461176d565b6114ff565b3360009081526001602052604090205460ff168061050557506000546001600160a01b031633145b61052a5760405162461bcd60e51b8152600401610521906119d7565b60405180910390fd5b33600090815260046020526040902054806105875760405162461bcd60e51b815260206004820152601c60248201527f4e6f2061646d696e2062616c616e636520746f207769746864726177000000006044820152606401610521565b336000818152600460205260408082208290555183156108fc0291849190818181858888f193505050501580156105c2573d6000803e3d6000fd5b5060405181815233907fddc398b321237a8d40ac914388309c2f52a08c134e4dc4ce61e32f57cb7d80f19060200160405180910390a250565b6001600160a01b03811660009081526007602090815260409182902080548351818402810184019094528084526060939283018282801561065b57602002820191906000526020600020905b815481526020019060010190808311610647575b50505050509050919050565b60006060806060600080600080600089118015610685575060055489105b6106a15760405162461bcd60e51b815260040161052190611a19565b6000898152600660208190526040909120805460048201546005830154938301546001840180549495939490936002870193600388019390926001600160a01b0380841693600160a01b900460ff1692169087906106fe90611a50565b80601f016020809104026020016040519081016040528092919081815260200182805461072a90611a50565b80156107775780601f1061074c57610100808354040283529160200191610777565b820191906000526020600020905b81548152906001019060200180831161075a57829003601f168201915b5050505050965085805461078a90611a50565b80601f01602080910402602001604051908101604052809291908181526020018280546107b690611a50565b80156108035780601f106107d857610100808354040283529160200191610803565b820191906000526020600020905b8154815290600101906020018083116107e657829003601f168201915b5050505050955084805461081690611a50565b80601f016020809104026020016040519081016040528092919081815260200182805461084290611a50565b801561088f5780601f106108645761010080835404028352916020019161088f565b820191906000526020600020905b81548152906001019060200180831161087257829003601f168201915b505050505094509850985098509850985098509850985050919395975091939597565b6000546001600160a01b031633146108dc5760405162461bcd60e51b815260040161052190611a84565b6001600160a01b03811660009081526001602052604090205460ff166109445760405162461bcd60e51b815260206004820152601760248201527f41646472657373206973206e6f7420616e2061646d696e0000000000000000006044820152606401610521565b6001600160a01b038116600081815260016020526040808220805460ff19169055517fa3b62bc36326052d97ea62d63c3d60308ed4c3ea8ac079dd8499f1e9c4f80c0f9190a250565b6000546001600160a01b031633146109b75760405162461bcd60e51b815260040161052190611a84565b6001600160a01b0381166109dd5760405162461bcd60e51b815260040161052190611acc565b6001600160a01b03811660009081526002602052604090205460ff1615610a465760405162461bcd60e51b815260206004820152601760248201527f5573657220616c726561647920726567697374657265640000000000000000006044820152606401610521565b6001600160a01b038116600081815260026020526040808220805460ff19166001179055517f54db7a5cb4735e1aac1f53db512d3390390bb6637bd30ad4bf9fc98667d9b9b99190a250565b3360009081526001602052604090205460ff1680610aba57506000546001600160a01b031633145b610ad65760405162461bcd60e51b8152600401610521906119d7565b600081118015610ae7575060055481105b610b035760405162461bcd60e51b815260040161052190611a19565b60008082815260066020526040902060050154600160a01b900460ff166003811115610b3157610b316117cc565b14610b785760405162461bcd60e51b815260206004820152601760248201527650726f7065727479206973206e6f742070656e64696e6760481b6044820152606401610521565b600081815260066020819052604080832060058101805460ff60a01b1916600160a11b17905590910180546001600160a01b031916339081179091559051909183917f51922a50d941e0e3c221255fd634692203f6c5fd5110667ebc4dd41df303d80f9190a350565b606060006001600554610bf49190611b0b565b67ffffffffffffffff811115610c0c57610c0c61187a565b604051908082528060200260200182016040528015610c35578160200160208202803683370190505b50905060015b600554811015610c7f578082610c52600183611b0b565b81518110610c6257610c62611b24565b602090810291909101015280610c7781611b3a565b915050610c3b565b50919050565b6000546001600160a01b03163314610caf5760405162461bcd60e51b815260040161052190611a84565b6001600160a01b038116610cd55760405162461bcd60e51b815260040161052190611acc565b600080546001600160a01b039092166001600160a01b031990921682178155908152600260205260409020805460ff19166001179055565b3360009081526002602052604081205460ff1680610d3a57503360009081526001602052604090205460ff165b80610d4f57506000546001600160a01b031633145b610d6b5760405162461bcd60e51b815260040161052190611b53565b60055460408051610100810182528281526020810188905290810186905260608101859052608081018490523360a082015260c081016000815260006020918201819052838152600682526040902082518155908201516001820190610dd19082611bef565b5060408201516002820190610de69082611bef565b5060608201516003820190610dfb9082611bef565b506080820151600482015560a08201516005820180546001600160a01b039092166001600160a01b031983168117825560c0850151926001600160a81b03191617600160a01b836003811115610e5357610e536117cc565b021790555060e09190910151600690910180546001600160a01b0319166001600160a01b0390921691909117905533600090815260076020908152604082208054600181018255908352908220018290556005805491610eb283611b3a565b9091555050604051339082907ff16e2a0ca5373d3b3c5e53640bf2953ea25184f229ba20d421b5fc6a635e394590600090a395945050505050565b3360009081526002602052604090205460ff1680610f1a57503360009081526001602052604090205460ff165b80610f2f57506000546001600160a01b031633145b610f4b5760405162461bcd60e51b815260040161052190611b53565b60008181526006602052604090208115801590610f69575060055482105b610f855760405162461bcd60e51b815260040161052190611a19565b60016005820154600160a01b900460ff166003811115610fa757610fa76117cc565b14610ff45760405162461bcd60e51b815260206004820152601e60248201527f50726f7065727479206e6f7420617070726f76656420666f722073616c6500006044820152606401610521565b60058101546001600160a01b031633036110505760405162461bcd60e51b815260206004820152601d60248201527f4f776e65722063616e6e6f7420627579206f776e2070726f70657274790000006044820152606401610521565b80600401543410156110a45760405162461bcd60e51b815260206004820152601760248201527f496e73756666696369656e742066756e64732073656e740000000000000000006044820152606401610521565b600581015460048201546003546001600160a01b03909216916000906064906110cd9084611caf565b6110d79190611cc6565b905060006110e58284611b0b565b60068601549091506001600160a01b0316801561112f576001600160a01b03811660009081526004602052604081208054859290611124908490611ce8565b9091555061115d9050565b600080546001600160a01b031681526004602052604081208054859290611157908490611ce8565b90915550505b600586018054336001600160a81b03199091168117600360a01b1790915560009081526007602090815260408083208054600181018255908452918320909101899055516001600160a01b038716916108fc851502918591818181858888f193505050501580156111d2573d6000803e3d6000fd5b508334111561121357336108fc6111e98634611b0b565b6040518115909202916000818181858888f19350505050158015611211573d6000803e3d6000fd5b505b604080518581526020810185905233916001600160a01b038816918a917ff17ae70939d4cf0fffcec7ff83a385ce9409eec6273301c19c391c703d40364d910160405180910390a450505050505050565b6000546001600160a01b0316331461128e5760405162461bcd60e51b815260040161052190611a84565b6001600160a01b0381166112b45760405162461bcd60e51b815260040161052190611acc565b6001600160a01b03811660009081526001602052604090205460ff161561131d5760405162461bcd60e51b815260206004820152601b60248201527f4164647265737320697320616c726561647920616e2061646d696e00000000006044820152606401610521565b6001600160a01b0381166000818152600160208181526040808420805460ff199081168517909155600290925280842080549092169092179055517f44d6d25963f097ad14f29f06854a01f575648a1ef82f30e562ccd3889717e3399190a250565b6007602052816000526040600020818154811061139b57600080fd5b90600052602060002001600091509150505481565b3360009081526001602052604090205460ff16806113d857506000546001600160a01b031633145b6113f45760405162461bcd60e51b8152600401610521906119d7565b600081118015611405575060055481105b6114215760405162461bcd60e51b815260040161052190611a19565b60008082815260066020526040902060050154600160a01b900460ff16600381111561144f5761144f6117cc565b146114965760405162461bcd60e51b815260206004820152601760248201527650726f7065727479206973206e6f742070656e64696e6760481b6044820152606401610521565b600081815260066020819052604080832060058101805460ff60a01b1916600160a01b17905590910180546001600160a01b031916339081179091559051909183917fdc4a9e931ddb4ea0e6114226f2a3b598ce4b38bc6976643e3e4e7e7cfd1e16519190a350565b6006602052600090815260409020805460018201805491929161152190611a50565b80601f016020809104026020016040519081016040528092919081815260200182805461154d90611a50565b801561159a5780601f1061156f5761010080835404028352916020019161159a565b820191906000526020600020905b81548152906001019060200180831161157d57829003601f168201915b5050505050908060020180546115af90611a50565b80601f01602080910402602001604051908101604052809291908181526020018280546115db90611a50565b80156116285780601f106115fd57610100808354040283529160200191611628565b820191906000526020600020905b81548152906001019060200180831161160b57829003601f168201915b50505050509080600301805461163d90611a50565b80601f016020809104026020016040519081016040528092919081815260200182805461166990611a50565b80156116b65780601f1061168b576101008083540402835291602001916116b6565b820191906000526020600020905b81548152906001019060200180831161169957829003601f168201915b5050505060048301546005840154600690940154929390926001600160a01b038083169350600160a01b90920460ff16911688565b80356001600160a01b038116811461170257600080fd5b919050565b60006020828403121561171957600080fd5b611722826116eb565b9392505050565b6020808252825182820181905260009190848201906040850190845b8181101561176157835183529284019291840191600101611745565b50909695505050505050565b60006020828403121561177f57600080fd5b5035919050565b6000815180845260005b818110156117ac57602081850181015186830182015201611790565b506000602082860101526020601f19601f83011685010191505092915050565b634e487b7160e01b600052602160045260246000fd5b60006101008a83528060208401526117fc8184018b611786565b90508281036040840152611810818a611786565b905082810360608401526118248189611786565b608084018890526001600160a01b0387811660a086015290925090506004851061185e57634e487b7160e01b600052602160045260246000fd5b8460c084015280841660e0840152509998505050505050505050565b634e487b7160e01b600052604160045260246000fd5b600082601f8301126118a157600080fd5b813567ffffffffffffffff808211156118bc576118bc61187a565b604051601f8301601f19908116603f011681019082821181831017156118e4576118e461187a565b816040528381528660208588010111156118fd57600080fd5b836020870160208301376000602085830101528094505050505092915050565b6000806000806080858703121561193357600080fd5b843567ffffffffffffffff8082111561194b57600080fd5b61195788838901611890565b9550602087013591508082111561196d57600080fd5b61197988838901611890565b9450604087013591508082111561198f57600080fd5b5061199c87828801611890565b949793965093946060013593505050565b600080604083850312156119c057600080fd5b6119c9836116eb565b946020939093013593505050565b60208082526022908201527f4f6e6c792061646d696e2063616e20706572666f726d2074686973206163746960408201526137b760f11b606082015260800190565b60208082526017908201527f50726f706572747920646f6573206e6f74206578697374000000000000000000604082015260600190565b600181811c90821680611a6457607f821691505b602082108103610c7f57634e487b7160e01b600052602260045260246000fd5b60208082526028908201527f4f6e6c792073757065722061646d696e2063616e20706572666f726d20746869604082015267399030b1ba34b7b760c11b606082015260800190565b6020808252600f908201526e496e76616c6964206164647265737360881b604082015260600190565b634e487b7160e01b600052601160045260246000fd5b81810381811115611b1e57611b1e611af5565b92915050565b634e487b7160e01b600052603260045260246000fd5b600060018201611b4c57611b4c611af5565b5060010190565b6020808252602d908201527f4f6e6c7920726567697374657265642075736572732063616e20706572666f7260408201526c36903a3434b99030b1ba34b7b760991b606082015260800190565b601f821115611bea57600081815260208120601f850160051c81016020861015611bc75750805b601f850160051c820191505b81811015611be657828155600101611bd3565b5050505b505050565b815167ffffffffffffffff811115611c0957611c0961187a565b611c1d81611c178454611a50565b84611ba0565b602080601f831160018114611c525760008415611c3a5750858301515b600019600386901b1c1916600185901b178555611be6565b600085815260208120601f198616915b82811015611c8157888601518255948401946001909101908401611c62565b5085821015611c9f5787850151600019600388901b60f8161c191681555b5050505050600190811b01905550565b8082028115828204841417611b1e57611b1e611af5565b600082611ce357634e487b7160e01b600052601260045260246000fd5b500490565b80820180821115611b1e57611b1e611af556fea26469706673582212206b72af668d10c52610cab44e75375e39f69bcb68214000dfb7e4cb736b1f928264736f6c63430008110033",
  "immutableReferences": {},
  "source": "// SPDX-License-Identifier: MIT\npragma solidity ^0.8.0;\n\ncontract PropertyRegistryV3 {\n    address public superAdmin;\n    mapping(address => bool) public admins;\n    mapping(address => bool) public registeredUsers;\n    \n    uint256 public adminFeePercent = 10; // 10% fee for the admin\n    mapping(address => uint256) public adminBalances; // Track admin earnings from fees\n    \n    struct Property {\n        uint256 id;\n        string title;\n        string description;\n        string location;\n        uint256 price;\n        address owner;\n        PropertyStatus status;\n        address approvedBy;\n    }\n    \n    enum PropertyStatus {\n        Pending,\n        Approved,\n        Rejected,\n        Sold\n    }\n    \n    // Property ID counter\n    uint256 private nextPropertyId = 1;\n    \n    // Mapping from property ID to Property\n    mapping(uint256 => Property) public properties;\n    \n    // Mapping from address to their properties (as arrays of property IDs)\n    mapping(address => uint256[]) public userProperties;\n    \n    // Events\n    event UserRegistered(address indexed user);\n    event AdminAdded(address indexed admin);\n    event AdminRemoved(address indexed admin);\n    event PropertyRegistered(uint256 indexed propertyId, address indexed owner);\n    event PropertyApproved(uint256 indexed propertyId, address indexed admin);\n    event PropertyRejected(uint256 indexed propertyId, address indexed admin);\n    event PropertySold(uint256 indexed propertyId, address indexed previousOwner, address indexed newOwner, uint256 price, uint256 fee);\n    event BalanceWithdrawn(address indexed user, uint256 amount);\n    \n    modifier onlySuperAdmin() {\n        require(msg.sender == superAdmin, \"Only super admin can perform this action\");\n        _;\n    }\n    \n    modifier onlyAdmin() {\n        require(admins[msg.sender] || msg.sender == superAdmin, \"Only admin can perform this action\");\n        _;\n    }\n    \n    modifier onlyRegisteredUser() {\n        require(registeredUsers[msg.sender] || admins[msg.sender] || msg.sender == superAdmin, \"Only registered users can perform this action\");\n        _;\n    }\n    \n    modifier onlyPropertyOwner(uint256 _propertyId) {\n        require(properties[_propertyId].owner == msg.sender, \"Only property owner can perform this action\");\n        _;\n    }\n    \n    constructor() {\n        superAdmin = msg.sender;\n        registeredUsers[msg.sender] = true; // Super admin is also a registered user\n    }\n    \n    // Super Admin functions\n    function addAdmin(address _admin) external onlySuperAdmin {\n        require(_admin != address(0), \"Invalid address\");\n        require(!admins[_admin], \"Address is already an admin\");\n        \n        admins[_admin] = true;\n        registeredUsers[_admin] = true; // Admins are also registered users\n        \n        emit AdminAdded(_admin);\n    }\n    \n    function removeAdmin(address _admin) external onlySuperAdmin {\n        require(admins[_admin], \"Address is not an admin\");\n        \n        admins[_admin] = false;\n        \n        emit AdminRemoved(_admin);\n    }\n    \n    function registerUser(address _user) external onlySuperAdmin {\n        require(_user != address(0), \"Invalid address\");\n        require(!registeredUsers[_user], \"User already registered\");\n        \n        registeredUsers[_user] = true;\n        \n        emit UserRegistered(_user);\n    }\n    \n    function changeSuperAdmin(address _newSuperAdmin) external onlySuperAdmin {\n        require(_newSuperAdmin != address(0), \"Invalid address\");\n        superAdmin = _newSuperAdmin;\n        registeredUsers[_newSuperAdmin] = true; // New super admin is also a registered user\n    }\n    \n    // Admin functions\n    function approveProperty(uint256 _propertyId) external onlyAdmin {\n        require(_propertyId > 0 && _propertyId < nextPropertyId, \"Property does not exist\");\n        require(properties[_propertyId].status == PropertyStatus.Pending, \"Property is not pending\");\n        \n        properties[_propertyId].status = PropertyStatus.Approved;\n        properties[_propertyId].approvedBy = msg.sender;\n        \n        emit PropertyApproved(_propertyId, msg.sender);\n    }\n    \n    function rejectProperty(uint256 _propertyId) external onlyAdmin {\n        require(_propertyId > 0 && _propertyId < nextPropertyId, \"Property does not exist\");\n        require(properties[_propertyId].status == PropertyStatus.Pending, \"Property is not pending\");\n        \n        properties[_propertyId].status = PropertyStatus.Rejected;\n        properties[_propertyId].approvedBy = msg.sender;\n        \n        emit PropertyRejected(_propertyId, msg.sender);\n    }\n    \n    function withdrawAdminBalance() external onlyAdmin {\n        uint256 amount = adminBalances[msg.sender];\n        require(amount > 0, \"No admin balance to withdraw\");\n        \n        adminBalances[msg.sender] = 0;\n        payable(msg.sender).transfer(amount);\n        \n        emit BalanceWithdrawn(msg.sender, amount);\n    }\n    \n    // User functions\n    function registerProperty(\n        string memory _title,\n        string memory _description,\n        string memory _location,\n        uint256 _price\n    ) external onlyRegisteredUser returns (uint256) {\n        uint256 propertyId = nextPropertyId;\n        \n        properties[propertyId] = Property({\n            id: propertyId,\n            title: _title,\n            description: _description,\n            location: _location,\n            price: _price,\n            owner: msg.sender,\n            status: PropertyStatus.Pending,\n            approvedBy: address(0)\n        });\n        \n        userProperties[msg.sender].push(propertyId);\n        nextPropertyId++;\n        \n        emit PropertyRegistered(propertyId, msg.sender);\n        \n        return propertyId;\n    }\n    \n    function buyProperty(uint256 _propertyId) external payable onlyRegisteredUser {\n        Property storage property = properties[_propertyId];\n        \n        require(_propertyId > 0 && _propertyId < nextPropertyId, \"Property does not exist\");\n        require(property.status == PropertyStatus.Approved, \"Property not approved for sale\");\n        require(msg.sender != property.owner, \"Owner cannot buy own property\");\n        require(msg.value >= property.price, \"Insufficient funds sent\");\n        \n        address previousOwner = property.owner;\n        uint256 propertyPrice = property.price;\n        \n        // Calculate admin fee (10%)\n        uint256 adminFee = (propertyPrice * adminFeePercent) / 100;\n        uint256 sellerAmount = propertyPrice - adminFee;\n        \n        // Determine which admin gets the fee (the one who approved the property)\n        address feeReceiver = property.approvedBy;\n        if (feeReceiver != address(0)) {\n            adminBalances[feeReceiver] += adminFee;\n        } else {\n            // If no specific admin approved (fallback), give to super admin\n            adminBalances[superAdmin] += adminFee;\n        }\n        \n        // Update property status\n        property.status = PropertyStatus.Sold;\n        property.owner = msg.sender;\n        \n        // Update owner's property list\n        userProperties[msg.sender].push(_propertyId);\n        \n        // Transfer funds to previous owner (minus the admin fee)\n        payable(previousOwner).transfer(sellerAmount);\n        \n        // Return excess payment to buyer if any\n        if (msg.value > propertyPrice) {\n            payable(msg.sender).transfer(msg.value - propertyPrice);\n        }\n        \n        emit PropertySold(_propertyId, previousOwner, msg.sender, propertyPrice, adminFee);\n    }\n    \n    // View functions\n    function getUserProperties(address _user) external view returns (uint256[] memory) {\n        return userProperties[_user];\n    }\n    \n    function getPropertyDetails(uint256 _propertyId) external view returns (\n        uint256 id,\n        string memory title,\n        string memory description,\n        string memory location,\n        uint256 price,\n        address owner,\n        PropertyStatus status,\n        address approvedBy\n    ) {\n        require(_propertyId > 0 && _propertyId < nextPropertyId, \"Property does not exist\");\n        \n        Property storage property = properties[_propertyId];\n        \n        return (\n            property.id,\n            property.title,\n            property.description,\n            property.location,\n            property.price,\n            property.owner,\n            property.status,\n            property.approvedBy\n        );\n    }\n    \n    function getAllProperties() external view returns (uint256[] memory) {\n        uint256[] memory allProperties = new uint256[](nextPropertyId - 1);\n        \n        for (uint256 i = 1; i < nextPropertyId; i++) {\n            allProperties[i - 1] = i;\n        }\n        \n        return allProperties;\n    }\n    \n    function getAdminBalance(address _admin) external view returns (uint256) {\n        return adminBalances[_admin];\n    }\n    \n    function isUserRegistered(address _user) external view returns (bool) {\n        return registeredUsers[_user];\n    }\n    \n    function isAdmin(address _user) external view returns (bool) {\n        return admins[_user];\n    }\n    \n    function isSuperAdmin(address _user) external view returns (bool) {\n        return _user == superAdmin;\n    }\n}\n",
  "sourcePath": "/Users/abdallah/Desktop/property-registry-dApp/contracts/PropertyRegistryV3.sol",
  "compiler": {
    "name": "solc",
    "version": "0.8.17+commit.8df45f5f.Emscripten.clang"
  },
  "schemaVersion": "3.4.16",
  "updatedAt": "2025-05-05T16:37:26.199Z",
  "networkType": "ethereum",
  "devdoc": {
    "kind": "dev",
    "methods": {},
    "version": 1
  },
  "userdoc": {
    "kind": "user",
    "methods": {},
    "version": 1
  }
}