{
  "contractName": "PropertyRegistryV2",
  "abi": [
    {
      "inputs": [],
      "stateMutability": "nonpayable",
      "type": "constructor"
    },
    {
      "anonymous": false,
      "inputs": [
        {
          "indexed": false,
          "internalType": "uint256",
          "name": "amount",
          "type": "uint256"
        }
      ],
      "name": "AdminFeeCollected",
      "type": "event"
    },
    {
      "anonymous": false,
      "inputs": [
        {
          "indexed": true,
          "internalType": "address",
          "name": "user",
          "type": "address"
        },
        {
          "indexed": false,
          "internalType": "uint256",
          "name": "amount",
          "type": "uint256"
        }
      ],
      "name": "BalanceWithdrawn",
      "type": "event"
    },
    {
      "anonymous": false,
      "inputs": [
        {
          "indexed": true,
          "internalType": "uint256",
          "name": "propertyId",
          "type": "uint256"
        },
        {
          "indexed": true,
          "internalType": "address",
          "name": "owner",
          "type": "address"
        }
      ],
      "name": "PropertyRegistered",
      "type": "event"
    },
    {
      "anonymous": false,
      "inputs": [
        {
          "indexed": true,
          "internalType": "uint256",
          "name": "propertyId",
          "type": "uint256"
        },
        {
          "indexed": true,
          "internalType": "address",
          "name": "previousOwner",
          "type": "address"
        },
        {
          "indexed": true,
          "internalType": "address",
          "name": "newOwner",
          "type": "address"
        },
        {
          "indexed": false,
          "internalType": "uint256",
          "name": "price",
          "type": "uint256"
        },
        {
          "indexed": false,
          "internalType": "uint256",
          "name": "fee",
          "type": "uint256"
        }
      ],
      "name": "PropertySold",
      "type": "event"
    },
    {
      "anonymous": false,
      "inputs": [
        {
          "indexed": true,
          "internalType": "uint256",
          "name": "propertyId",
          "type": "uint256"
        }
      ],
      "name": "PropertyValidated",
      "type": "event"
    },
    {
      "inputs": [],
      "name": "admin",
      "outputs": [
        {
          "internalType": "address",
          "name": "",
          "type": "address"
        }
      ],
      "stateMutability": "view",
      "type": "function"
    },
    {
      "inputs": [],
      "name": "adminBalance",
      "outputs": [
        {
          "internalType": "uint256",
          "name": "",
          "type": "uint256"
        }
      ],
      "stateMutability": "view",
      "type": "function"
    },
    {
      "inputs": [],
      "name": "adminFeePercent",
      "outputs": [
        {
          "internalType": "uint256",
          "name": "",
          "type": "uint256"
        }
      ],
      "stateMutability": "view",
      "type": "function"
    },
    {
      "inputs": [
        {
          "internalType": "uint256",
          "name": "",
          "type": "uint256"
        }
      ],
      "name": "properties",
      "outputs": [
        {
          "internalType": "uint256",
          "name": "id",
          "type": "uint256"
        },
        {
          "internalType": "string",
          "name": "title",
          "type": "string"
        },
        {
          "internalType": "string",
          "name": "description",
          "type": "string"
        },
        {
          "internalType": "string",
          "name": "location",
          "type": "string"
        },
        {
          "internalType": "uint256",
          "name": "price",
          "type": "uint256"
        },
        {
          "internalType": "address",
          "name": "owner",
          "type": "address"
        },
        {
          "internalType": "bool",
          "name": "isValidated",
          "type": "bool"
        },
        {
          "internalType": "bool",
          "name": "isSold",
          "type": "bool"
        }
      ],
      "stateMutability": "view",
      "type": "function"
    },
    {
      "inputs": [
        {
          "internalType": "address",
          "name": "",
          "type": "address"
        }
      ],
      "name": "userBalances",
      "outputs": [
        {
          "internalType": "uint256",
          "name": "",
          "type": "uint256"
        }
      ],
      "stateMutability": "view",
      "type": "function"
    },
    {
      "inputs": [
        {
          "internalType": "address",
          "name": "",
          "type": "address"
        },
        {
          "internalType": "uint256",
          "name": "",
          "type": "uint256"
        }
      ],
      "name": "userProperties",
      "outputs": [
        {
          "internalType": "uint256",
          "name": "",
          "type": "uint256"
        }
      ],
      "stateMutability": "view",
      "type": "function"
    },
    {
      "inputs": [
        {
          "internalType": "string",
          "name": "_title",
          "type": "string"
        },
        {
          "internalType": "string",
          "name": "_description",
          "type": "string"
        },
        {
          "internalType": "string",
          "name": "_location",
          "type": "string"
        },
        {
          "internalType": "uint256",
          "name": "_price",
          "type": "uint256"
        }
      ],
      "name": "registerProperty",
      "outputs": [
        {
          "internalType": "uint256",
          "name": "",
          "type": "uint256"
        }
      ],
      "stateMutability": "nonpayable",
      "type": "function"
    },
    {
      "inputs": [
        {
          "internalType": "uint256",
          "name": "_propertyId",
          "type": "uint256"
        }
      ],
      "name": "validateProperty",
      "outputs": [],
      "stateMutability": "nonpayable",
      "type": "function"
    },
    {
      "inputs": [
        {
          "internalType": "uint256",
          "name": "_propertyId",
          "type": "uint256"
        }
      ],
      "name": "buyProperty",
      "outputs": [],
      "stateMutability": "payable",
      "type": "function"
    },
    {
      "inputs": [
        {
          "internalType": "address",
          "name": "_user",
          "type": "address"
        }
      ],
      "name": "getUserProperties",
      "outputs": [
        {
          "internalType": "uint256[]",
          "name": "",
          "type": "uint256[]"
        }
      ],
      "stateMutability": "view",
      "type": "function"
    },
    {
      "inputs": [
        {
          "internalType": "uint256",
          "name": "_propertyId",
          "type": "uint256"
        }
      ],
      "name": "getPropertyDetails",
      "outputs": [
        {
          "internalType": "uint256",
          "name": "id",
          "type": "uint256"
        },
        {
          "internalType": "string",
          "name": "title",
          "type": "string"
        },
        {
          "internalType": "string",
          "name": "description",
          "type": "string"
        },
        {
          "internalType": "string",
          "name": "location",
          "type": "string"
        },
        {
          "internalType": "uint256",
          "name": "price",
          "type": "uint256"
        },
        {
          "internalType": "address",
          "name": "owner",
          "type": "address"
        },
        {
          "internalType": "bool",
          "name": "isValidated",
          "type": "bool"
        },
        {
          "internalType": "bool",
          "name": "isSold",
          "type": "bool"
        }
      ],
      "stateMutability": "view",
      "type": "function"
    },
    {
      "inputs": [],
      "name": "getAllProperties",
      "outputs": [
        {
          "internalType": "uint256[]",
          "name": "",
          "type": "uint256[]"
        }
      ],
      "stateMutability": "view",
      "type": "function"
    },
    {
      "inputs": [],
      "name": "withdrawAdminBalance",
      "outputs": [],
      "stateMutability": "nonpayable",
      "type": "function"
    },
    {
      "inputs": [],
      "name": "getAdminBalance",
      "outputs": [
        {
          "internalType": "uint256",
          "name": "",
          "type": "uint256"
        }
      ],
      "stateMutability": "view",
      "type": "function"
    },
    {
      "inputs": [],
      "name": "getUserBalance",
      "outputs": [
        {
          "internalType": "uint256",
          "name": "",
          "type": "uint256"
        }
      ],
      "stateMutability": "view",
      "type": "function"
    },
    {
      "inputs": [
        {
          "internalType": "address",
          "name": "_newAdmin",
          "type": "address"
        }
      ],
      "name": "changeAdmin",
      "outputs": [],
      "stateMutability": "nonpayable",
      "type": "function"
    }
  ],
  "bytecode": "0x6080604052600a6001556000600255600160035534801561001f57600080fd5b50600080546001600160a01b0319163317905561151c806100416000396000f3fe6080604052600436106100f25760003560e01c80638c7fb7931161008a578063e2271c9f11610059578063e2271c9f1461027b578063f40ffcfb1461029b578063f7b10808146102b0578063f851a440146102d057600080fd5b80638c7fb7931461021b5780638f283970146102315780639858befb14610251578063b7013dc11461026757600080fd5b806326224c64116100c657806326224c64146101985780633d51402c146101d35780636d0b1e87146101e85780636fa830a61461020857600080fd5b80621640f9146100f7578063060a3e611461010e578063126dbe4314610144578063128e328214610178575b600080fd5b34801561010357600080fd5b5061010c610308565b005b34801561011a57600080fd5b5061012e610129366004610fe9565b6103cd565b60405161013b919061100b565b60405180910390f35b34801561015057600080fd5b5061016461015f36600461104f565b610439565b60405161013b9897969594939291906110ae565b34801561018457600080fd5b5061010c61019336600461104f565b610684565b3480156101a457600080fd5b506101c56101b3366004610fe9565b60066020526000908152604090205481565b60405190815260200161013b565b3480156101df57600080fd5b5061012e6107f1565b3480156101f457600080fd5b506101c56102033660046111c6565b610895565b61010c61021636600461104f565b6109ef565b34801561022757600080fd5b506101c560015481565b34801561023d57600080fd5b5061010c61024c366004610fe9565b610d1b565b34801561025d57600080fd5b506101c560025481565b34801561027357600080fd5b5033316101c5565b34801561028757600080fd5b506101c5610296366004611256565b610daf565b3480156102a757600080fd5b506002546101c5565b3480156102bc57600080fd5b506101646102cb36600461104f565b610de0565b3480156102dc57600080fd5b506000546102f0906001600160a01b031681565b6040516001600160a01b03909116815260200161013b565b6000546001600160a01b0316331461033b5760405162461bcd60e51b815260040161033290611280565b60405180910390fd5b6002548061038b5760405162461bcd60e51b815260206004820152601c60248201527f4e6f2061646d696e2062616c616e636520746f207769746864726177000000006044820152606401610332565b6000600281905580546040516001600160a01b039091169183156108fc02918491818181858888f193505050501580156103c9573d6000803e3d6000fd5b5050565b6001600160a01b03811660009081526005602090815260409182902080548351818402810184019094528084526060939283018282801561042d57602002820191906000526020600020905b815481526020019060010190808311610419575b50505050509050919050565b60006060806060600080600080600089118015610457575060035489105b6104735760405162461bcd60e51b8152600401610332906112c2565b600089815260046020819052604090912080549181015460058201546001830180549394939092600286019260038701926001600160a01b0382169160ff600160a01b8204811692600160a81b909204169087906104d0906112f9565b80601f01602080910402602001604051908101604052809291908181526020018280546104fc906112f9565b80156105495780601f1061051e57610100808354040283529160200191610549565b820191906000526020600020905b81548152906001019060200180831161052c57829003601f168201915b5050505050965085805461055c906112f9565b80601f0160208091040260200160405190810160405280929190818152602001828054610588906112f9565b80156105d55780601f106105aa576101008083540402835291602001916105d5565b820191906000526020600020905b8154815290600101906020018083116105b857829003601f168201915b505050505095508480546105e8906112f9565b80601f0160208091040260200160405190810160405280929190818152602001828054610614906112f9565b80156106615780601f1061063657610100808354040283529160200191610661565b820191906000526020600020905b81548152906001019060200180831161064457829003601f168201915b505050505094509850985098509850985098509850985050919395975091939597565b6000546001600160a01b031633146106ae5760405162461bcd60e51b815260040161033290611280565b6000811180156106bf575060035481105b6106db5760405162461bcd60e51b8152600401610332906112c2565b600081815260046020526040902060050154600160a01b900460ff16156107445760405162461bcd60e51b815260206004820152601a60248201527f50726f706572747920616c72656164792076616c6964617465640000000000006044820152606401610332565b600081815260046020526040902060050154600160a81b900460ff16156107a55760405162461bcd60e51b8152602060048201526015602482015274141c9bdc195c9d1e48185b1c9958591e481cdbdb19605a1b6044820152606401610332565b600081815260046020526040808220600501805460ff60a01b1916600160a01b1790555182917f521d9fd8c608936261524b801a5fe233ffa36d4c1517361e18578ae81d25d06991a250565b6060600060016003546108049190611343565b67ffffffffffffffff81111561081c5761081c611123565b604051908082528060200260200182016040528015610845578160200160208202803683370190505b50905060015b60035481101561088f578082610862600183611343565b815181106108725761087261135c565b60209081029190910101528061088781611372565b91505061084b565b50919050565b6003546040805161010081018252828152602080820188815282840188905260608301879052608083018690523360a0840152600060c0840181905260e0840181905285815260049092529281208251815592519093929060018201906108fc90826113da565b506040820151600282019061091190826113da565b506060820151600382019061092690826113da565b506080820151600482015560a08201516005918201805460c085015160e0909501511515600160a81b0260ff60a81b19951515600160a01b026001600160a81b03199092166001600160a01b0390941693909317179390931617909155336000908152602091825260408120805460018101825590825291812090910182905560038054916109b483611372565b9091555050604051339082907ff16e2a0ca5373d3b3c5e53640bf2953ea25184f229ba20d421b5fc6a635e394590600090a395945050505050565b60008181526004602052604090208115801590610a0d575060035482105b610a295760405162461bcd60e51b8152600401610332906112c2565b6005810154600160a01b900460ff16610a845760405162461bcd60e51b815260206004820152601a60248201527f50726f7065727479206e6f742076616c696461746564207965740000000000006044820152606401610332565b6005810154600160a81b900460ff1615610ad85760405162461bcd60e51b8152602060048201526015602482015274141c9bdc195c9d1e48185b1c9958591e481cdbdb19605a1b6044820152606401610332565b60058101546001600160a01b03163303610b345760405162461bcd60e51b815260206004820152601d60248201527f4f776e65722063616e6e6f7420627579206f776e2070726f70657274790000006044820152606401610332565b8060040154341015610b885760405162461bcd60e51b815260206004820152601760248201527f496e73756666696369656e742066756e64732073656e740000000000000000006044820152606401610332565b600581015460048201546001546001600160a01b0390921691600090606490610bb1908461149a565b610bbb91906114b1565b90506000610bc98284611343565b90508160026000828254610bdd91906114d3565b909155505060058086018054600161ff0160a01b03191633908117600160a81b17909155600090815260209182526040808220805460018101825590835292822090920188905590516001600160a01b0386169183156108fc02918491818181858888f19350505050158015610c57573d6000803e3d6000fd5b5082341115610c9857336108fc610c6e8534611343565b6040518115909202916000818181858888f19350505050158015610c96573d6000803e3d6000fd5b505b604080518481526020810184905233916001600160a01b0387169189917ff17ae70939d4cf0fffcec7ff83a385ce9409eec6273301c19c391c703d40364d910160405180910390a46040518281527fa95661e171308d847a13f8b863f33baf671b922480128cb10e632304389d17df9060200160405180910390a1505050505050565b6000546001600160a01b03163314610d455760405162461bcd60e51b815260040161033290611280565b6001600160a01b038116610d8d5760405162461bcd60e51b815260206004820152600f60248201526e496e76616c6964206164647265737360881b6044820152606401610332565b600080546001600160a01b0319166001600160a01b0392909216919091179055565b60056020528160005260406000208181548110610dcb57600080fd5b90600052602060002001600091509150505481565b60046020526000908152604090208054600182018054919291610e02906112f9565b80601f0160208091040260200160405190810160405280929190818152602001828054610e2e906112f9565b8015610e7b5780601f10610e5057610100808354040283529160200191610e7b565b820191906000526020600020905b815481529060010190602001808311610e5e57829003601f168201915b505050505090806002018054610e90906112f9565b80601f0160208091040260200160405190810160405280929190818152602001828054610ebc906112f9565b8015610f095780601f10610ede57610100808354040283529160200191610f09565b820191906000526020600020905b815481529060010190602001808311610eec57829003601f168201915b505050505090806003018054610f1e906112f9565b80601f0160208091040260200160405190810160405280929190818152602001828054610f4a906112f9565b8015610f975780601f10610f6c57610100808354040283529160200191610f97565b820191906000526020600020905b815481529060010190602001808311610f7a57829003601f168201915b50505060048401546005909401549293926001600160a01b038116925060ff600160a01b820481169250600160a81b9091041688565b80356001600160a01b0381168114610fe457600080fd5b919050565b600060208284031215610ffb57600080fd5b61100482610fcd565b9392505050565b6020808252825182820181905260009190848201906040850190845b8181101561104357835183529284019291840191600101611027565b50909695505050505050565b60006020828403121561106157600080fd5b5035919050565b6000815180845260005b8181101561108e57602081850181015186830182015201611072565b506000602082860101526020601f19601f83011685010191505092915050565b60006101008a83528060208401526110c88184018b611068565b905082810360408401526110dc818a611068565b905082810360608401526110f08189611068565b608084019790975250506001600160a01b039390931660a084015290151560c0830152151560e090910152949350505050565b634e487b7160e01b600052604160045260246000fd5b600082601f83011261114a57600080fd5b813567ffffffffffffffff8082111561116557611165611123565b604051601f8301601f19908116603f0116810190828211818310171561118d5761118d611123565b816040528381528660208588010111156111a657600080fd5b836020870160208301376000602085830101528094505050505092915050565b600080600080608085870312156111dc57600080fd5b843567ffffffffffffffff808211156111f457600080fd5b61120088838901611139565b9550602087013591508082111561121657600080fd5b61122288838901611139565b9450604087013591508082111561123857600080fd5b5061124587828801611139565b949793965093946060013593505050565b6000806040838503121561126957600080fd5b61127283610fcd565b946020939093013593505050565b60208082526022908201527f4f6e6c792061646d696e2063616e20706572666f726d2074686973206163746960408201526137b760f11b606082015260800190565b60208082526017908201527f50726f706572747920646f6573206e6f74206578697374000000000000000000604082015260600190565b600181811c9082168061130d57607f821691505b60208210810361088f57634e487b7160e01b600052602260045260246000fd5b634e487b7160e01b600052601160045260246000fd5b818103818111156113565761135661132d565b92915050565b634e487b7160e01b600052603260045260246000fd5b6000600182016113845761138461132d565b5060010190565b601f8211156113d557600081815260208120601f850160051c810160208610156113b25750805b601f850160051c820191505b818110156113d1578281556001016113be565b5050505b505050565b815167ffffffffffffffff8111156113f4576113f4611123565b6114088161140284546112f9565b8461138b565b602080601f83116001811461143d57600084156114255750858301515b600019600386901b1c1916600185901b1785556113d1565b600085815260208120601f198616915b8281101561146c5788860151825594840194600190910190840161144d565b508582101561148a5787850151600019600388901b60f8161c191681555b5050505050600190811b01905550565b80820281158282048414176113565761135661132d565b6000826114ce57634e487b7160e01b600052601260045260246000fd5b500490565b808201808211156113565761135661132d56fea26469706673582212202198785f6da6991393b0112ab2062b15aab2e63b8ce248dedc87bc41f7b1e1da64736f6c63430008110033",
  "immutableReferences": {},
  "source": "// SPDX-License-Identifier: MIT\npragma solidity ^0.8.0;\n\ncontract PropertyRegistryV2 {\n    address public admin;\n    uint256 public adminFeePercent = 10; // 10% fee for the admin\n    uint256 public adminBalance = 0; // Track admin earnings from fees\n    \n    struct Property {\n        uint256 id;\n        string title;\n        string description;\n        string location;\n        uint256 price;\n        address owner;\n        bool isValidated;\n        bool isSold;\n    }\n    \n    // Property ID counter\n    uint256 private nextPropertyId = 1;\n    \n    // Mapping from property ID to Property\n    mapping(uint256 => Property) public properties;\n    \n    // Mapping from address to their properties (as arrays of property IDs)\n    mapping(address => uint256[]) public userProperties;\n    \n    // Mapping to track user balances\n    mapping(address => uint256) public userBalances;\n    \n    // Events\n    event PropertyRegistered(uint256 indexed propertyId, address indexed owner);\n    event PropertyValidated(uint256 indexed propertyId);\n    event PropertySold(uint256 indexed propertyId, address indexed previousOwner, address indexed newOwner, uint256 price, uint256 fee);\n    event BalanceWithdrawn(address indexed user, uint256 amount);\n    event AdminFeeCollected(uint256 amount);\n    \n    modifier onlyAdmin() {\n        require(msg.sender == admin, \"Only admin can perform this action\");\n        _;\n    }\n    \n    modifier onlyPropertyOwner(uint256 _propertyId) {\n        require(properties[_propertyId].owner == msg.sender, \"Only property owner can perform this action\");\n        _;\n    }\n    \n    constructor() {\n        admin = msg.sender;\n    }\n    \n    function registerProperty(\n        string memory _title,\n        string memory _description,\n        string memory _location,\n        uint256 _price\n    ) external returns (uint256) {\n        uint256 propertyId = nextPropertyId;\n        \n        properties[propertyId] = Property({\n            id: propertyId,\n            title: _title,\n            description: _description,\n            location: _location,\n            price: _price,\n            owner: msg.sender,\n            isValidated: false,\n            isSold: false\n        });\n        \n        userProperties[msg.sender].push(propertyId);\n        nextPropertyId++;\n        \n        emit PropertyRegistered(propertyId, msg.sender);\n        \n        return propertyId;\n    }\n    \n    function validateProperty(uint256 _propertyId) external onlyAdmin {\n        require(_propertyId > 0 && _propertyId < nextPropertyId, \"Property does not exist\");\n        require(!properties[_propertyId].isValidated, \"Property already validated\");\n        require(!properties[_propertyId].isSold, \"Property already sold\");\n        \n        properties[_propertyId].isValidated = true;\n        \n        emit PropertyValidated(_propertyId);\n    }\n    \n    function buyProperty(uint256 _propertyId) external payable {\n        Property storage property = properties[_propertyId];\n        \n        require(_propertyId > 0 && _propertyId < nextPropertyId, \"Property does not exist\");\n        require(property.isValidated, \"Property not validated yet\");\n        require(!property.isSold, \"Property already sold\");\n        require(msg.sender != property.owner, \"Owner cannot buy own property\");\n        require(msg.value >= property.price, \"Insufficient funds sent\");\n        \n        address previousOwner = property.owner;\n        uint256 propertyPrice = property.price;\n        \n        // Calculate admin fee (10%)\n        uint256 adminFee = (propertyPrice * adminFeePercent) / 100;\n        uint256 sellerAmount = propertyPrice - adminFee;\n        \n        // Update admin balance\n        adminBalance += adminFee;\n        \n        // Update property status\n        property.isSold = true;\n        property.owner = msg.sender;\n        \n        // Update owner's property list\n        userProperties[msg.sender].push(_propertyId);\n        \n        // Transfer funds to previous owner (minus the admin fee)\n        payable(previousOwner).transfer(sellerAmount);\n        \n        // Return excess payment to buyer if any\n        if (msg.value > propertyPrice) {\n            payable(msg.sender).transfer(msg.value - propertyPrice);\n        }\n        \n        emit PropertySold(_propertyId, previousOwner, msg.sender, propertyPrice, adminFee);\n        emit AdminFeeCollected(adminFee);\n    }\n    \n    function getUserProperties(address _user) external view returns (uint256[] memory) {\n        return userProperties[_user];\n    }\n    \n    function getPropertyDetails(uint256 _propertyId) external view returns (\n        uint256 id,\n        string memory title,\n        string memory description,\n        string memory location,\n        uint256 price,\n        address owner,\n        bool isValidated,\n        bool isSold\n    ) {\n        require(_propertyId > 0 && _propertyId < nextPropertyId, \"Property does not exist\");\n        \n        Property storage property = properties[_propertyId];\n        \n        return (\n            property.id,\n            property.title,\n            property.description,\n            property.location,\n            property.price,\n            property.owner,\n            property.isValidated,\n            property.isSold\n        );\n    }\n    \n    function getAllProperties() external view returns (uint256[] memory) {\n        uint256[] memory allProperties = new uint256[](nextPropertyId - 1);\n        \n        for (uint256 i = 1; i < nextPropertyId; i++) {\n            allProperties[i - 1] = i;\n        }\n        \n        return allProperties;\n    }\n    \n    function withdrawAdminBalance() external onlyAdmin {\n        uint256 amount = adminBalance;\n        require(amount > 0, \"No admin balance to withdraw\");\n        adminBalance = 0;\n        payable(admin).transfer(amount);\n    }\n    \n    function getAdminBalance() external view returns (uint256) {\n        return adminBalance;\n    }\n    \n    // Allow users to check their balance\n    function getUserBalance() external view returns (uint256) {\n        return address(msg.sender).balance;\n    }\n    \n    function changeAdmin(address _newAdmin) external onlyAdmin {\n        require(_newAdmin != address(0), \"Invalid address\");\n        admin = _newAdmin;\n    }\n}\n",
  "sourcePath": "/Users/abdallah/Desktop/property-registry-dApp/contracts/PropertyRegistryV2.sol",
  "compiler": {
    "name": "solc",
    "version": "0.8.17+commit.8df45f5f.Emscripten.clang"
  },
  "schemaVersion": "3.4.16",
  "updatedAt": "2025-05-05T01:48:04.870Z",
  "devdoc": {
    "kind": "dev",
    "methods": {},
    "version": 1
  },
  "userdoc": {
    "kind": "user",
    "methods": {},
    "version": 1
  }
}